S016000050726F6A656374355F4D757369632E73726563A2
S11300000C942A000C943F000C943F000C943F0085
S11300100C943F000C943F000C943F000C943F0060
S11300200C943F000C943F000C943F000C943F0050
S11300300C943F000C943F000C943F000C943F0040
S11300400C943F000C943F000C943F000C943F0030
S11300500C943F0011241FBECFE5D8E0DEBFCDBF16
S113006015E0A0E6B0E0E4E9F4E002C005900D92EA
S1130070A836B107D9F70E94AE000C9448020C943C
S113008000009C0181E083BF88EF08C082BF98B75D
S1130090916098BFA89508B600FEFDCF21503109A4
S11300A0A8F713BE08954F925F926F927F928F923A
S11300B09F92AF92BF92CF92DF92EF92FF920F93F3
S11300C01F93CF93DF9329013A019B01AC0160E0B8
S11300D070E080E89FE30E94E2006B017C0120E075
S11300E030E040E05FE30E94DB0120E034E244E7DB
S11300F059E40E94DB014B015C01A7019601C30195
S1130100B2010E94E2000E9454018B0116161706E8
S1130110A4F4C0E0D0E0C09AC501B4010E945B0120
S11301206B017C01CB010E944100C098C6010E9472
S1130130410021960C171D0771F7DF91CF911F9194
S11301400F91FF90EF90DF90CF90BF90AF909F9072
S11301508F907F906F905F904F90089580E884BF58
S113016084BF81E087BBC1988ABBD998FF24F394EC
S113017008E615E0C99B23C0FBBAC0E6D0E02C8199
S11301803D814E815F81688179818A819B810E9452
S113019053002896C017D10791F7C8EBD0E02C8103
S11301A03D814E815F81688179818A819B810E9432
S11301B053002896C017D10791F71BBADBCF18BAA2
S11301C01BBAD8CF0E94F6000C94A1010E949A0198
S11301D058F00E94930140F029F45F3F29F00C94F9
S11301E08A0151110C94D5010C9490010E94B20122
S11301F068F39923B1F3552391F3951B550BBB2752
S1130200AA2762177307840738F09F5F5F4F220F96
S1130210331F441FAA1FA9F335D00E2E3AF0E0E88D
S113022032D091505040E695001CCAF72BD0FE2FD7
S113023029D0660F771F881FBB1F2617370748076B
S1130240AB07B0E809F0BB0B802DBF01FF27935823
S11302505F4F3AF09E3F510578F00C948A010C945C
S1130260D5015F3FE4F3983ED4F38695779567957F
S1130270B795F7959F5FC9F7880F911D9695879558
S113028097F90895E1E0660F771F881FBB1F621777
S113029073078407BA0720F0621B730B840BBA0B35
S11302A0EE1F88F7E09508950E945B016894B111F0
S11302B00C94D50108950E94BA0188F09F5798F0D4
S11302C0B92F9927B751B0F0E1F0660F771F881F57
S11302D0991F1AF0BA95C9F714C0B13091F00E9471
S11302E0D401B1E008950C94D401672F782F8827A6
S11302F0B85F39F0B93FCCF3869577956795B39598
S1130300D9F73EF490958095709561957F4F8F4F06
S11303109F4F089597F99F6780E870E060E0089523
S11303209FEF80EC089500240A9416161706180609
S11303300906089500240A941216130614060506E5
S11303400895092E0394000C11F4882352F0BB0F76
S113035040F4BF2B11F460FF04C06F5F7F4F8F4FD9
S11303609F4F089557FD9058440F551F59F05F3F14
S113037071F04795880F97FB991F61F09F3F79F0C3
S113038087950895121613061406551FF2CF469545
S1130390F1DF08C0161617061806991FF1CF8695C7
S11303A07105610508940895E894BB2766277727AB
S11303B0CB0197F908950E94EE010C94A1010E94CB
S11303C0930138F00E949A0120F0952311F00C94C7
S11303D08A010C94900111240C94D5010E94B2015D
S11303E070F3959FC1F3950F50E0551F629FF00184
S11303F0729FBB27F00DB11D639FAA27F00DB11D9D
S1130400AA1F649F6627B00DA11D661F829F222725
S1130410B00DA11D621F739FB00DA11D621F839FAC
S1130420A00D611D221F749F3327A00D611D231F82
S1130430849F600D211D822F762F6A2F11249F57D0
S113044050409AF0F1F088234AF0EE0FFF1FBB1FD3
S1130450661F771F881F91505040A9F79E3F510592
S113046080F00C948A010C94D5015F3FE4F3983E2C
S1130470D4F3869577956795B795F795E7959F5F3C
S1130480C1F7FE2B880F911D9695879597F90895CE
S1070490F894FFCF0A
S113049410D00244ABAAAA3D10D00244ABAAAA3D90
S11304A410D00244ABAAAA3D10D002440000803EFE
S11304B40AA7CF430000803EFE14E9430000803EB7
S11304C410D00244ABAAAA3D002474490000803F22
S11304D4FE14E943ABAAAA3D10D002440000003F35
S11304E410D002440000803EFAA64F440000803D30
S11304F400D082440000803DFAA64F440000803DB1
S11305042F9D2E440000803DFAA64F440000003E77
S1130514FAA64F440000803D00D082440000803D90
S1130524FAA64F440000803D2F9D2E440000803DD8
S1130534FAA64F440000803DFE1469440000803D47
S113054400D082440000803DFE1469440000803DD4
S1130554FAA64F440000803D2F9D2E440000803DA8
S113056400005C440000803D00D082440000803DD3
S113057400005C440000803D2F9D2E440000803D1B
S113058400005C440000003E00005C440000803D28
S113059400D082440000803D00005C440000803DA3
S11305A42F9D2E440000803D00005C440000803DEB
S11305B4FE1469440000803D00D082440000803D64
S11305C4FE1469440000803D00005C440000803D4A
S11305D42F9D2E440000803DFAA64F440000803D28
S11305E400D082440000803DFAA64F440000803DC0
S11305F42F9D2E440000803DFAA64F440000003E87
S1130604FAA64F440000803D00D082440000803D9F
S1130614FAA64F440000803D2F9D2E440000803DE7
S1130624FAA64F440000803DFE1469440000803D56
S113063400D082440000803DFE1469440000803DE3
S1130644FAA64F440000803D2F9D2E440000803DB7
S1130654FAA64F440000803D00D082440000803D4F
S1130664FAA64F440000803D52D024440000803D4B
S1130674FAA64F440000003EFAA64F440000803D11
S113068400D082440000803DFAA64F440000803D1F
S113069452D024440000803DFAA64F440000803D1B
S11306A4FE1469440000803D00D082440000803D73
S11306B4FE1469440000803DFAA64F440000803DC6
S11306C452D024440000803DFAA64F440000803DEB
S11306D400D082440000803DFAA64F440000803DCF
S11306E42F9D2E440000803DFAA64F440000003E96
S11306F4FAA64F440000803D00D082440000803DAF
S1130704FAA64F440000803D2F9D2E440000803DF6
S1130714FAA64F440000803DFE1469440000803D65
S113072400D082440000803DFE1469440000803DF2
S1130734FAA64F440000803D2F9D2E440000803DC6
S113074400005C440000803D00D082440000803DF1
S113075400005C440000803D2F9D2E440000803D39
S113076400005C440000003E00005C440000803D46
S113077400D082440000803D00005C440000803DC1
S11307842F9D2E440000803D00005C440000803D09
S1130794FE1469440000803D00D082440000803D82
S11307A4FE1469440000803D00005C440000803D68
S11307B42F9D2E440000803DFE1469440000803DBA
S11307C45C970A440000803DFE1469440000803DA7
S11307D44CFF38440000803DFE1469440000003E90
S11307E4FE1469440000803D5C970A440000803D87
S11307F4FE1469440000803D4CFF38440000803DF1
S1130804FE1469440000803D00D082440000803D11
S11308145C970A440000803D00D082440000803D7F
S1130824FE1469440000803D4CFF38440000803DC0
S1130834FE1469440000803D5C970A440000803D36
S1130844FE1469440000803D4CFF38440000803DA0
S1130854FE1469440000003EFE1469440000803D17
S11308645C970A440000803DFE1469440000803D06
S11308744CFF38440000803DFE1469440000803D70
S113088400D082440000803D5C970A440000803D0F
S113089400D082440000803DFE1469440000803D81
S11308A44CFF38440000803DFE1469440000803D40
S11308B41FD512440000803DFE1469440000803DAD
S11308C44CFF38440000803DFE1469440000003E9F
S11308D4FE1469440000803D1FD512440000803D8D
S11308E4FE1469440000803D4CFF38440000803D00
S11308F4FE1469440000803D00D082440000803D21
S11309041FD512440000803D00D082440000803D85
S1130914FE1469440000803D4CFF38440000803DCF
S1130924FE1469440000803D1FD512440000803D3C
S1130934FE1469440000803D6DFF43440000803D83
S1130944FE1469440000003EFE1469440000803D26
S11309541FD512440000803DFE1469440000803D0C
S11309646DFF43440000803DFE1469440000803D53
S113097400D082440000803D1FD512440000803D15
S113098400D082440000803DFE1469440000803D90
S10B09946DFF43440000803DA7
S9030000FC
