:100000000C94A7000C94BC000C94BC000C94BC0095
:100010000C94BC000C94BC000C94BC000C94BC0070
:100020000C94BC000C94BC000C94BC000C94BC0060
:100030000C94BC000C94BC000C94BC000C94BC0050
:100040000C94BC000C94BC000C94BC000C94BC0040
:100050000C94BC0000407A10F35A00A0724E1809AC
:100060000010A5D4E80000E87648170000E40B541F
:10007000020000CA9A3B000000E1F50500008096EE
:100080009800000040420F000000A0860100000020
:10009000102700000000E8030000000064000000DA
:1000A00000000A00000000000100000000002C76A3
:1000B000D888DC674F0823DFC1DFAE59E1B1B796BE
:1000C000E5E3E453C63AE651997696E8E6C284261B
:1000D000EB898C9B62ED407C6FFCEFBC9C9F40F2F7
:1000E000BAA56FA5F490055A2AF75C936B6CF96773
:1000F0006DC11BFCE0E40D47FEF520E6B500D0ED38
:10010000902E0300943577050080841E080000209F
:100110004E0A000000C80C333333330F986E12833D
:100120001141EF8D2114893BE65516CFFEE6DB1811
:10013000D1844B381BF77C1D901DA4BBE4242032D6
:1001400084725E228100C9F124ECA1E53D271124CF
:100150001FBECFE5D8E0DEBFCDBF10E0A0E6B0E027
:10016000E6E3F5E102C005900D92AE3CB107D9F788
:100170000E94C3030C94990A0C9400009C0181E036
:1001800083BF88EF08C082BF98B7916098BFA895D9
:1001900008B600FEFDCF21503109A8F713BE08951F
:1001A000662311F0C09A01C0C098C19882BB8FEF3E
:1001B00081BBC29A000000000000C2980895C09858
:1001C000C19A11BA90B3C29A00000000000011BA9F
:1001D00090B3C29899239CF30E94D0000895B89AD6
:1001E000B99ABA9A80E190E00E94BE0060E080E394
:1001F0000E94D00085E090E00E94BE0060E080E3B5
:100200000E94D00081E090E00E94BE0060E08CE39C
:100210000E94DF0060E08CE00E94DF0060E086E08A
:100220000E94DF0060E081E00E94DF000895CF932C
:10023000C62F98E2899FC00D112460E082E00E94E1
:10024000DF00CC2331F060E084E10E94DF00C15088
:10025000D1F7CF91089561E00E94DF000895CF9318
:10026000DF93EC012196FC018081882331F061E06D
:100270000E94DF0089918111FACFDF91CF9108951B
:100280002FE024BB25BB55B321E030E0F90102C0CB
:10029000EE0FFF1F6A95E2F74E2F4095452345BBB1
:1002A00045B30496082E02C0220F331F0A94E2F7CA
:1002B000242B25BB23B330E002C0359527958A95C2
:1002C000E2F781E090E020FF02C080E090E0089536
:1002D0000F931F93CF93DF9300E010E018C0BE018F
:1002E000C8010E944001009749F0CC0FDD1FCC0FE0
:1002F000DD1FC00FD11FCE0101960CC02196C43066
:10030000D10569F70F5F1F4F0430110519F0C0E0E8
:10031000D0E0E5CFDF91CF911F910F9108950F931A
:100320001F93CF93DF938C01EB0180E1E4E6F0E0D3
:10033000D80101900D928A95E1F78CE0E4E7F0E0B6
:10034000DB0101900D928A95E1F760E080E00E9468
:100350001701C8010E942F0160E081E00E9417018F
:10036000CE010E942F01DF91CF911F910F9108952F
:100370009C0183E083BF83E808C082BF98B7916087
:1003800098BFA89508B600FEFDCF21503109A8F707
:1003900013BE08959F92AF92BF92CF92DF92EF92D9
:1003A000FF920F931F93CF93DF93F82E6B0160E0C2
:1003B00081E00E9417018AEA90E00E942F01C0E0CC
:1003C000D0E000E010E06894992491F8A12CBB24BF
:1003D000B394E12C80E2F812EFC082E0C816D10499
:1003E00009F4D3C0C114D10409F0D3C0CB34D10572
:1003F0000CF0DEC060E081E00E94170180E890E030
:100400000E942F0124C0CB34D1050CF0C7C060E09E
:1004100081E00E9417018AE890E00E942F0117C036
:1004200060E081E00E9417018DEA90E00E942F01B8
:100430000EC0CC34D1055CF080E2F81208C060E058
:1004400081E00E9417018DEA90E00E942F010115C2
:10045000110509F090C00E9468018530910561F195
:100460001CF4029749F087C08730910509F444C015
:100470000A9709F461C07FC060E081E00E94170123
:100480008EE50E942B018EE5F8120BC062E081E040
:100490000E94170184E990E00E942F010B2D1E2D70
:1004A0006AC062E081E00E94170189E990E00E9441
:1004B0002F01092D1A2D5FC060E081E00E94170115
:1004C0008CE30E942B018CE3F8120BC062E081E008
:1004D0000E94170184E990E00E942F010B2D1E2D30
:1004E0004AC062E081E00E94170189E990E00E9421
:1004F0002F01092D1A2D3FC060E081E00E941701F5
:100500008EE30E942B018EE3F8120BC062E081E0C3
:100510000E94170184E990E00E942F010B2D1E2DEF
:100520002AC062E081E00E94170189E990E00E9400
:100530002F01092D1A2D1FC060E081E00E941701D4
:1005400086E70E942B0186E7F8120BC062E081E08B
:100550000E94170184E990E00E942F010B2D1E2DAF
:100560000AC062E081E00E94170189E990E00E94E0
:100570002F01092D1A2D8B2D9E2D0E94B801219639
:10058000C83CD10509F026CF21C0CB34D10584F475
:1005900031CF81E0C816D10459F435CFCA31D10525
:1005A0000CF03ECF0EC0CC34D1050CF048CF4FCF6D
:1005B000CA31D105C4F73DCFCA31D1050CF047CFC0
:1005C00038CFCC34D1050CF442CF39CFC801DF91FC
:1005D000CF911F910F91FF90EF90DF90CF90BF9040
:1005E000AF909F9008952F923F924F925F926F929B
:1005F0007F928F929F92AF92BF92CF92DF92EF92B3
:10060000FF920F931F93CF93DF93CDB7DEB766971B
:100610000FB6F894DEBF0FBECDBF85E0EFE9F0E086
:10062000DE01119601900D928A95E1F781E1E4EAED
:10063000F0E0DE01169601900D928A95E1F70E9496
:100640000A05C12CD12C812C912C612C712C412CB0
:10065000512C7E0186E0E80EF11C8E010B5E1F4FCF
:1006600060E080E00E941701C7010E942F018FE027
:10067000C816D1043CF463E070E08E810E94CA0188
:100680004C0105C0B4018E810E94CA014C0181E079
:100690008816910419F48FEF681A780A0E940A05E7
:1006A0009C013E2C2F2C5801F7011DC04528B1F4A8
:1006B00023703078332334F4215031092C6F3F6F8D
:1006C0002F5F3F4FE1E0F0E0EC0FFD1FE20FF31F63
:1006D00080818D8B44244394512C2DC080E28D8BDE
:1006E000412C512C28C0918191930E171F07D9F7E7
:1006F000DDCF60E080E00E941701CE0106960E94E7
:100700002F01B4018E810E94CA014C0181E088163C
:10071000910419F48FEF681A780AE32DF22D05C0C1
:10072000FD8A0150110929F714C081818193AE1609
:10073000BF06D9F7F5CF8FEFC81AD80A8CE5C816CF
:10074000D10409F08DCF00E110E06894FF24F5F8A2
:10075000D0CFC30166960FB6F894DEBF0FBECDBFF3
:10076000DF91CF911F910F91FF90EF90DF90CF908D
:10077000BF90AF909F908F907F906F905F904F90C1
:100780003F902F900895CF93DF93CDB7DEB7C45439
:10079000D1090FB6F894DEBF0FBECDBF80E884BF8D
:1007A00084BF0E94EF00BE016E5E7F4FCE010196B6
:1007B0000E948F01D09A0F2EF5EBCF2EF0E0DF2EA6
:1007C000F02D7E0184E3E80EF11C0F2EF4E69F2E3F
:1007D000F02D0F2EF8E2AF2EB12CF02D0E94680103
:1007E0000497E1F7D89AD89860E081E00E94170159
:1007F00088EA90E00E942F010E94F3028C011F936F
:100800008F93DF92CF92FF92EF920E941A0560E0E1
:1008100081E00E941701C7010E942F0160E080E083
:100820000E941701909EC001919E900D1124B50168
:100830000E947604072E000C880B990B0E943B0443
:100840008E010D5D1F4F20E043E00E949E048FEB60
:1008500090E00E942F016AE080E00E941701C80129
:100860000E942F010F900F900F900F900F900F90FC
:10087000B5CFE89409C097FB3EF4909580957095AC
:1008800061957F4F8F4F9F4F9923A9F0F92F96E9DC
:10089000BB279395F695879577956795B795F11151
:1008A000F8CFFAF4BB0F11F460FF1BC06F5F7F4FEE
:1008B0008F4F9F4F16C0882311F096E911C0772300
:1008C00021F09EE8872F762F05C0662371F096E809
:1008D000862F70E060E02AF09A95660F771F881FD8
:1008E000DAF7880F9695879597F9089597FB072E65
:1008F00016F4009407D077FD09D00E948A0407FC03
:1009000005D03EF4909581959F4F0895709561951F
:100910007F4F0895AA1BBB1B51E107C0AA1FBB1F35
:10092000A617B70710F0A61BB70B881F991F5A957B
:10093000A9F780959095BC01CD010895EF920F9392
:100940001F93CF93DF93E80147FD02C034E001C05D
:1009500034E1042E000C550B57FF03C0519541950F
:100960005109E32E022F242FAE010E941D07CE0154
:10097000DF91CF911F910F91EF9008958F929F92E9
:10098000AF92BF92CF92DF92EF92FF92CF93DF931D
:10099000EC01688179818A819B81611571058105EE
:1009A000910521F464E279ED8BE597E02DE133EFD9
:1009B00041E050E00E94FF0949015A019B01AC014E
:1009C000A7EAB1E40E941E0A6B017C01ACEEB4EF11
:1009D000A50194010E942C0ADC01CB018C0D9D1D08
:1009E000AE1DBF1DB7FF03C00197A109B0488883A2
:1009F0009983AA83BB839F77DF91CF91FF90EF907C
:100A0000DF90CF90BF90AF909F908F9008950E94FD
:100A1000BE04089580E690E00E94BE040895A0E020
:100A2000B0E08093600090936100A0936200B09367
:100A300063000895AEE0B0E0E0E2F5E00C943F0A18
:100A40000D891E8986E08C831A8309838FEF9FE7C7
:100A50009E838D83AE01475E5F4F6F89788DCE0197
:100A600001960E943C05EF81F885E00FF11F10828E
:100A70002E96E4E00C945B0AABE0B0E0E2E4F5E033
:100A80000C94310A6C017B018A01FC0117821682E9
:100A9000838181FFCCC1CE0101963C01F601938197
:100AA000F70193FD859193FF81917F01882309F4DC
:100AB000BAC1853239F493FD859193FF81917F010D
:100AC000853229F4B60190E00E946509E7CF912CA8
:100AD000212C312CFFE1F315D8F08B3279F038F46A
:100AE000803279F08332A1F4232D20611DC08D3234
:100AF00061F0803369F4232D216016C0832D82605C
:100B0000382EE32DE4603E2E2AC0F32DF8601DC080
:100B100037FC2DC020ED280F2A3040F08E32B9F47A
:100B200036FC81C1232D2064322E19C036FE06C04A
:100B30008AE0989E200D1124922E11C0EAE02E9E8C
:100B4000200D1124222EF32DF0623F2E08C08C368A
:100B500021F4832D8068382E02C0883641F4F701D5
:100B600093FD859193FF81917F018111B3CF982FE0
:100B70009F7D9554933028F40C5F1F4F9FE399831A
:100B80000DC0833631F0833771F0833509F059C0D9
:100B900021C0F801808189830E5F1F4F88248394D0
:100BA000912C530113C02801F2E04F0E511CF801A3
:100BB000A080B18036FE03C0692D70E002C06FEFE7
:100BC0007FEFC5010E945A094C018201F32DFF7786
:100BD0003F2E16C0280122E0420E511CF801A080D1
:100BE000B18036FE03C0692D70E002C06FEF7FEF69
:100BF000C5010E944F094C01F32DF0683F2E820180
:100C000033FC1BC0822D90E088169906B0F4B60123
:100C100080E290E00E9465092A94F4CFF50137FC48
:100C2000859137FE81915F01B60190E00E946509D0
:100C300021102A9421E0821A91088114910471F7FD
:100C4000E8C0843611F0893641F5F80137FE07C057
:100C500060817181828193810C5F1F4F08C0608128
:100C60007181072E000C880B990B0E5F1F4FF32D1F
:100C7000FF763F2E97FF09C09095809570956195FE
:100C80007F4F8F4F9F4FF0683F2E2AE030E0A30147
:100C90000E94A109882E861845C0853731F4232D7E
:100CA0002F7EB22E2AE030E025C0932D997FB92EF9
:100CB0008F36C1F018F4883579F0B5C0803719F057
:100CC000883721F0B0C0E92FE061BE2EB4FE0DC020
:100CD000FB2DF460BF2E09C034FE0AC0292F266008
:100CE000B22E06C028E030E005C020E130E002C0AE
:100CF00020E132E0F801B7FE07C060817181828196
:100D000093810C5F1F4F06C06081718180E090E08D
:100D10000E5F1F4FA3010E94A109882E8618FB2D8C
:100D2000FF773F2E36FE0DC0232D2E7FA22E891475
:100D300058F434FE0BC032FC09C0832D8E7EA82EE1
:100D400005C0B82CA32C03C0B82C01C0B92CA4FE3C
:100D50000FC0FE01E80DF11D8081803321F49A2D32
:100D6000997EA92E09C0A2FE06C0B394B39404C014
:100D70008A2D867809F0B394A3FC11C0A0FE06C0AA
:100D8000B21488F4280C922C9B180EC0B21460F494
:100D9000B60180E290E00E946509B394F7CFB214E7
:100DA00018F42B1802C0982C212CA4FE10C0B601F8
:100DB00080E390E00E946509A2FE17C0A1FC03C079
:100DC00088E790E002C088E590E0B6010CC08A2D6B
:100DD000867859F0A1FE02C08BE201C080E2A7FC38
:100DE0008DE2B60190E00E946509891438F4B601DD
:100DF00080E390E00E9465099A94F7CF8A94F3010A
:100E0000E80DF11D8081B60190E00E946509811016
:100E1000F5CF222009F442CEB60180E290E00E9494
:100E200065092A94F6CFF6018681978102C08FEF7B
:100E30009FEF2B96E2E10C944D0AA9E0B0E0E3E2CB
:100E4000F7E00C94370A6A01122FB02E2BE320171B
:100E500020F0FF24F394F00E02C02CE3F22E0F2DAD
:100E600027E0AE014F5F5F4F0E947708BC014981C8
:100E7000842F8970813031F0E1FC06C0E0FE06C0AD
:100E800090E205C09DE203C09BE201C090E05E2DB0
:100E9000507143FF3CC0911102C083E001C084E067
:100EA000811718F4212F281B01C020E051110BC01D
:100EB000F601822F30E2882319F031938150FBCF65
:100EC000C20ED11C20E0992329F0D6019C93F60193
:100ED00031966F01C6010396E2FE0AC03EE4D601D8
:100EE0003C9341E411964C93119712963C9306C0A3
:100EF0003EE6F601308341E641833283FC01322F26
:100F000040E2332309F442C041933150FACF42FF0B
:100F100044C0911102C083E001C084E0811718F43D
:100F2000212F281B01C020E051110BC0F601822F98
:100F300030E2882319F031938150FBCFC20ED11CCF
:100F400020E0992329F0D6019C93F60131966F0198
:100F5000C6010396E2FE0BC039E4D6013C933EE4A1
:100F600011963C93119736E412963C9307C039E6EC
:100F7000F60130833EE6318336E63283FC01322FC0
:100F800040E2332319F041933150FBCFFC01E20FD3
:100F9000F11D10828EEF9FEFA6C021E030E091118D
:100FA00002C020E030E0161617061CF4FB01319653
:100FB00002C0E1E0F0E02E0F3F1FBB2021F0EB2D3F
:100FC000F0E0319602C0E0E0F0E02E0F3F1FE12F8D
:100FD000F0E02E173F071CF4121B212F01C020E068
:100FE0008E2D887159F4F601822F30E2882319F092
:100FF00031938150FBCFC20ED11C20E0992329F000
:10100000D6019C93F60131966F0151110BC0F60188
:10101000822F90E3882319F091938150FBCFC20E69
:10102000D11C20E00F2D060F9A81342F307144FF20
:1010300003C0913309F40150101624F4093018F05C
:1010400008E001C001E0AB0177FF02C040E050E0E2
:10105000FB01E41BF50BA1E0B0E0AC0FBD1FEA0FF4
:10106000FB1F8EE2A82E4B01801A91080B2D10E079
:101070001195019511094F3FBFEF5B0721F4D60190
:10108000AC9211966D01641775072CF084169506C5
:1010900014F4818101C080E3415051093196D60199
:1010A00011967D014017510724F0D6018C936701FA
:1010B000E2CF6417750739F4963320F4953319F4A9
:1010C000311101C081E3F6018083F701822F90E2A4
:1010D000882319F091938150FBCFF701E20FF11DA6
:1010E000108280E090E02996ECE00C94530A2830BE
:1010F00008F027E03327DA01990F311D87FD916051
:1011000000966105710539F432602E5F3D9330E33E
:101110002A95E1F708959F3F30F080387105610509
:1011200009F03C5F3C5F3D93913008F08068911D71
:10113000DF93CF931F930F93FF92EF92192F987F16
:101140009695E92F96959695E90FFF27E255FF4F63
:1011500099273327EE24FF24A701E701059008947F
:10116000079428F4360FE71EF81E491F511D660F1D
:10117000771F881F991F0694A1F70590079428F4FC
:10118000E70EF81E491F561FC11D770F881F991FB4
:10119000661F0694A1F70590079428F4F80E491FDE
:1011A000561FC71FD11D880F991F661F771F0694F2
:1011B000A1F70590079420F4490F561FC71FD81FA9
:1011C000990F661F771F881F0694A9F784911095C1
:1011D000177041F0D695C79557954795F794E794C2
:1011E0001A95C1F7E4E5F0E06894159015913591F2
:1011F0006591959105907FE27395E118F10A430B93
:10120000560BC90BD009C0F7E10CF11E431F561F46
:10121000C91FD01D7EF4703311F48A95E6CFE8948F
:10122000015030F0080F0AF40027021708F4202FAD
:101230002395022F7A3328F079E37D932A95E9F7F5
:1012400010C07D932A9589F60694979567953795F2
:1012500017951794E118F10A430B560BC90BD009E7
:1012600098F023957E9173957A3308F070E37C9320
:101270002013B8F77E9170617D9330F0839571E310
:101280007D9370E32A95E1F71124EF90FF900F9181
:101290001F91CF91DF91992787FD90950895FC01CB
:1012A0000590615070400110D8F7809590958E0F91
:1012B0009F1F0895FC016150704001900110D8F704
:1012C000809590958E0F9F1F08950F931F93CF9336
:1012D000DF93FB01238121FD03C08FEF9FEF2CC023
:1012E00022FF16C04681578124813581421753075A
:1012F00044F4A081B1819D012F5F3F4F3183208352
:101300008C93268137812F5F3F4F3783268314C00C
:101310008B01EC01FB010084F185E02D0995892BFF
:10132000E1F6D80116968D919C9117970196179624
:101330009C938E931697CE01DF91CF911F910F91C1
:101340000895FA01AA27283051F1203181F1E8945B
:101350006F936E7F6E5F7F4F8F4F9F4FAF4FB1E0A8
:101360003ED0B4E03CD0670F781F891F9A1FA11DA3
:10137000680F791F8A1F911DA11D6A0F711D811DA4
:10138000911DA11D20D009F468943F912AE0269F69
:1013900011243019305D3193DEF6CF010895462FC8
:1013A0004770405D4193B3E00FD0C9F7F6CF462FA9
:1013B0004F70405D4A3318F0495D31FD4052419312
:1013C00002D0A9F7EACFB4E0A695979587957795CF
:1013D0006795BA95C9F700976105710508959B0156
:1013E000AC010A2E06945795479537952795BA95DF
:1013F000C9F7620F731F841F951FA01D0895052E46
:1014000097FB1EF400940E94160A57FD07D00E9415
:10141000680A07FC03D04EF40C94160A50954095C8
:10142000309521953F4F4F4F5F4F08959095809590
:10143000709561957F4F8F4F9F4F08950E948A0A44
:10144000A59F900DB49F900DA49F800D911D112418
:101450000895B7FF0C941E0A0E941E0A821B930B6C
:1014600008952F923F924F925F926F927F928F9248
:101470009F92AF92BF92CF92DF92EF92FF920F9323
:101480001F93CF93DF93CDB7DEB7CA1BDB0B0FB62D
:10149000F894DEBF0FBECDBF09942A8839884888EA
:1014A0005F846E847D848C849B84AA84B984C88480
:1014B000DF80EE80FD800C811B81AA81B981CE0F77
:1014C000D11D0FB6F894DEBF0FBECDBFED0108955C
:1014D000A1E21A2EAA1BBB1BFD010DC0AA1FBB1F38
:1014E000EE1FFF1FA217B307E407F50720F0A21BAA
:1014F000B30BE40BF50B661F771F881F991F1A9417
:1015000069F760957095809590959B01AC01BD0140
:10151000CF010895A29FB001B39FC001A39F700D9A
:10152000811D1124911DB29F700D811D1124911DEB
:061530000895F894FFCFBE
:101536000100000020202020323A5E2050726573A0
:1015460073204100343A3C20383A7620363A3E0041
:1015560020204D4953532120200020204849542162
:101566002020200048495421004D49535321003C76
:101576003E5E7600202020202020202020202020D3
:10158600202020200053434F52453A202564004135
:0E159600636375726163793A2020202025007E
:00000001FF
