S010000050726F6A656374352E7372656308
S11300000C942A000C943F000C943F000C943F0085
S11300100C943F000C943F000C943F000C943F0060
S11300200C943F000C943F000C943F000C943F0050
S11300300C943F000C943F000C943F000C943F0040
S11300400C943F000C943F000C943F000C943F0030
S11300500C943F0011241FBECFE5D8E0DEBFCDBF16
S113006010E0A0E6B0E0E6EBF2E002C005900D92ED
S1130070A437B107D9F70E9437010C9459010C94A5
S113008000009C0181E083BF88EF08C082BF98B75D
S1130090916098BFA89508B600FEFDCF21503109A4
S11300A0A8F713BE0895662311F0C09A01C0C09842
S11300B0C19882BB8FEF81BBC29A00000000000090
S11300C0C2980895C098C19A11BA90B3C29A000018
S11300D00000000011BA90B3C29899239CF30E94C7
S11300E053000895B89AB99ABA9A80E190E00E94B0
S11300F0410060E080E30E94530085E090E00E94AC
S1130100410060E080E30E94530081E090E00E949F
S1130110410060E08CE30E94620060E08CE00E9499
S1130120620060E086E00E94620060E081E00E947C
S113013062000895CF93C62F98E2899FC00D1124C1
S113014060E082E00E946200CC2331F060E084E150
S11301500E946200C150D1F7CF910895CF93DF93ED
S1130160EC012196FC018081882331F061E00E943A
S1130170620089918111FACFDF91CF9108952FE028
S113018024BB25BB55B321E030E0F90102C0EE0FDA
S1130190FF1F6A95E2F74E2F4095452345BB45B3B3
S11301A00496082E02C0220F331F0A94E2F7242B70
S11301B025BB23B330E002C0359527958A95E2F735
S11301C081E090E020FF02C080E090E008950F936A
S11301D01F93CF93DF9300E010E018C0BE01C80165
S11301E00E94BF00009749F0CC0FDD1FCC0FDD1F2C
S11301F0C00FD11FCE0101960CC02196C430D10589
S113020069F70F5F1F4F0430110519F0C0E0D0E00B
S1130210E5CFDF91CF911F910F9108950F931F9315
S1130220CF93DF938C01EB018AE0E0E6F0E0D801A4
S113023001900D928A95E1F789E0EAE6F0E0DB01AE
S113024001900D928A95E1F760E080E00E949A00A7
S1130250C8010E94AE0060E081E00E949A00CE01D5
S11302600E94AE00DF91CF911F910F910895CF931B
S1130270DF93CDB7DEB7A2970FB6F894DEBF0FBEFB
S1130280CDBF80E884BF84BF0E947200BE016E5E51
S11302907F4FCE0101960E940E01D09A0E94E70082
S11302A00497E1F7D89A88EE93E00E944100D89829
S10902B0F5CFF894FFCF26
S11302B64B4F4E49434849574100434849504F54D0
S10702C64C4500009F
S9030000FC
