:100000000C942A000C943F000C943F000C943F0089
:100010000C943F000C943F000C943F000C943F0064
:100020000C943F000C943F000C943F000C943F0054
:100030000C943F000C943F000C943F000C943F0044
:100040000C943F000C943F000C943F000C943F0034
:100050000C943F0011241FBECFE5D8E0DEBFCDBF1A
:1000600016E0A0E6B0E0E6EAF6E002C005900D92E8
:10007000AA30B107D9F70E946E010C9451030C9479
:1000800000009C0181E083BF88EF08C082BF98B761
:10009000916098BFA89508B600FEFDCF21503109A8
:1000A000A8F713BE0895662311F0C09A01C0C09846
:1000B000C19882BB8FEF81BBC29A00000000000094
:1000C000C2980895C098C19A11BA90B3C29A00001C
:1000D0000000000011BA90B3C29899239CF30E94CB
:1000E00053000895B89AB99ABA9A80E190E00E94B4
:1000F000410060E080E30E94530085E090E00E94B0
:10010000410060E080E30E94530081E090E00E94A3
:10011000410060E08CE30E94620060E08CE00E949D
:10012000620060E086E00E94620060E081E00E9480
:100130006200089560E081E00E9462000895CF931C
:10014000C62F98E2899FC00D112460E082E00E94D2
:100150006200CC2331F060E084E10E946200C15073
:10016000D1F7CF910895CF93DF93EC012196FC0155
:100170008081882331F061E00E94620089918111C1
:10018000FACFDF91CF9108952FE024BB25BB55B363
:1001900021E030E0F90102C0EE0FFF1F6A95E2F79F
:1001A0004E2F4095452345BB45B30496082E02C00B
:1001B000220F331F0A94E2F7242B25BB23B330E030
:1001C00002C0359527958A95E2F781E090E020FFFF
:1001D00002C080E090E008950F931F93CF93DF93C8
:1001E00000E010E018C0BE01C8010E94C4000097E2
:1001F00049F0CC0FDD1FCC0FDD1FC00FD11FCE018A
:1002000001960CC02196C430D10569F70F5F1F4FCE
:100210000430110519F0C0E0D0E0E5CFDF91CF91B7
:100220001F910F9108954F925F926F927F928F92DC
:100230009F92AF92BF92CF92DF92EF92FF920F9375
:100240001F93CF93DF9329013A019B01AC0160E03A
:1002500070E080E89FE30E94EB016B017C0120E0ED
:1002600030E040E05FE30E94E40220E034E244E753
:1002700059E40E94E4024B015C01A7019601C3010D
:10028000B2010E94EB010E945D028B011616170657
:10029000A4F4C0E0D0E0C49AC501B4010E94640295
:1002A0006B017C01CB010E944100C498C6010E94F1
:1002B000410021960C171D0771F7DF91CF911F9117
:1002C0000F91FF90EF90DF90CF90BF90AF909F90F5
:1002D0008F907F906F905F904F90089580E884BFDB
:1002E00084BF0E94720087E187BBC4980AE016E0D1
:1002F0000F2EF2E1EF2EF3E0FF2EF02D0E94EC0026
:100300008230910579F11CF4019749F0F7CF8330E1
:10031000910509F44AC0049709F452C0EFCF60E098
:1003200080E00E949F0080E690E00E94B30060E0C1
:1003300081E00E949F0080E790E00E94B300C2E14C
:10034000D3E02C813D814E815F81688179818A81F2
:100350009B810E9413012896C017D10791F70E9434
:100360009A00CCCF60E080E00E949F008BE790E095
:100370000E94B30060E081E00E949F0083E890E06B
:100380000E94B300C2E9D0E02C813D814E815F81A3
:10039000688179818A819B810E9413012896CE15FC
:1003A000DF0591F70E949A00A9CF2DEC3CEC4CE4BC
:1003B0005EE368E471EE88E991E40E9413019ECF48
:1003C0002DEC3CEC4CE45EE364EE7CE18FEB92E4DC
:1003D0000E94130193CF0E94FF010C94AA020E9475
:1003E000A30258F00E949C0240F029F45F3F29F0DC
:1003F0000C94930251110C94DE020C9499020E9409
:10040000BB0268F39923B1F3552391F3951B550B68
:10041000BB27AA2762177307840738F09F5F5F4FD7
:10042000220F331F441FAA1FA9F335D00E2E3AF016
:10043000E0E832D091505040E695001CCAF72BD02E
:10044000FE2F29D0660F771F881FBB1F261737077F
:100450004807AB07B0E809F0BB0B802DBF01FF27B1
:1004600093585F4F3AF09E3F510578F00C949302F9
:100470000C94DE025F3FE4F3983ED4F386957795C3
:100480006795B795F7959F5FC9F7880F911D96956A
:10049000879597F90895E1E0660F771F881FBB1FC6
:1004A000621773078407BA0720F0621B730B840B73
:1004B000BA0BEE1F88F7E09508950E9464026894D5
:1004C000B1110C94DE0208950E94C30288F09F5778
:1004D00098F0B92F9927B751B0F0E1F0660F771F68
:1004E000881F991F1AF0BA95C9F714C0B13091F05E
:1004F0000E94DD02B1E008950C94DD02672F782F91
:100500008827B85F39F0B93FCCF386957795679522
:10051000B395D9F73EF490958095709561957F4F8E
:100520008F4F9F4F089597F99F6780E870E060E0D4
:1005300008959FEF80EC089500240A94161617067C
:1005400018060906089500240A94121613061406C4
:1005500005060895092E0394000C11F4882352F027
:10056000BB0F40F4BF2B11F460FF04C06F5F7F4FDF
:100570008F4F9F4F089557FD9058440F551F59F0C6
:100580005F3F71F04795880F97FB991F61F09F3F80
:1005900079F087950895121613061406551FF2CFA9
:1005A0004695F1DF08C0161617061806991FF1CFF9
:1005B00086957105610508940895E894BB27662720
:1005C0007727CB0197F908950E94F7020C94AA02AD
:1005D0000E949C0238F00E94A30220F0952311F0A3
:1005E0000C9493020C94990211240C94DE020E9444
:1005F000BB0270F3959FC1F3950F50E0551F629FAA
:10060000F001729FBB27F00DB11D639FAA27F00D6B
:10061000B11DAA1F649F6627B00DA11D661F829F92
:100620002227B00DA11D621F739FB00DA11D621F77
:10063000839FA00D611D221F749F3327A00D611D94
:10064000231F849F600D211D822F762F6A2F112476
:100650009F5750409AF0F1F088234AF0EE0FFF1FA9
:10066000BB1F661F771F881F91505040A9F79E3F00
:10067000510580F00C9493020C94DE025F3FE4F38A
:10068000983ED4F3869577956795B795F795E79556
:100690009F5FC1F7FE2B880F911D9695879597F95F
:0606A0000895F894FFCF5D
:1006A6004C6567656E64206F66205A656C646100F0
:1006B6004C6F737420576F6F647300504F454B4DEA
:1006C6004F4E00504F454B4D4F4E2043454E5445DF
:1006D60052001FD51244CDCCCC3D0000DC43CDCC1E
:1006E600CC3D1FD51244CDCCCC3D00005C44CDCCD6
:1006F6004C3E6DFF4344CDCC4C3E4CFF3844CDCCF4
:10070600CC3D52D02444CDCCCC3D5C970A44CDCCD4
:100716004C3E5C970A44CDCCCC3D00247449CDCCEC
:100726004C3F00247449CDCC4C3F00247449CDCCB9
:100736004C3F00247449CDCC4C3F5C970A44CDCC49
:10074600CC3D0000DC43CDCCCC3D5C970A44CDCCFF
:10075600CC3D4CFF3844CDCC4C3E52D02444CDCC7D
:100766004C3E5C970A44CDCCCC3D1FD51244CDCC33
:10077600CC3D4CFF3844CDCC4C3E4CFF3844CDCC20
:10078600CC3D00247449CDCC4C3F00247449CDCCDB
:100796004C3F00247449CDCC4C3F00247449CDCC49
:1007A6004C3F1FD51244CDCCCC3D0000DC43CDCC14
:1007B600CC3D1FD51244CDCCCC3D00005C44CDCC05
:1007C6004C3E6DFF4344CDCC4C3E4CFF3844CDCC23
:1007D600CC3D52D02444CDCCCC3D5C970A44CDCC04
:1007E6004C3E5C970A44CDCCCC3D00247449CDCC1C
:1007F6004C3F00247449CDCC4C3F00247449CDCCE9
:100806004C3F00247449CDCC4C3F5C970A44CDCC78
:10081600CC3D0000DC43CDCCCC3D5C970A44CDCC2E
:10082600CC3D4CFF3844CDCC4C3E52D02444CDCCAC
:100836004C3E5C970A44CDCCCC3D1FD51244CDCC62
:10084600CC3E00247449CDCC4C3F00247449CDCC19
:100856004C3F00247449CDCC4C3F00247449CDCC88
:100866004C3F4CFF3844CDCCCC3E00005C44CDCC54
:10087600CC3E6DFF4344CDCCCC3D00005C44CDCC9A
:10088600CC3D6DFF4344CDCCCC3D4CFF3844CDCC64
:10089600CC3D52D02444CDCCCC3E5C970A44CDCC42
:1008A600CC3E52D02444CDCCCC3E4CFF3844CDCCAB
:1008B600CC3D6DFF4344CDCCCC3D4CFF3844CDCC34
:1008C600CC3D52D02444CDCCCC3D1FD51244CDCC0A
:1008D600CC3E4CFF3844CDCCCC3E00005C44CDCC65
:1008E600CC3E6DFF4344CDCCCC3D4CFF3844CDCC03
:1008F600CC3D6DFF4344CDCCCC3D00005C44CDCC1B
:10090600CC3D17F17644CDCCCC3E00005C44CDCC3A
:100916004C3E6DFF4344CDCCCC3D4CFF3844CDCC52
:10092600CC3D6DFF4344CDCCCC3E4CFF3844CDCCC2
:10093600CC3D6DFF4344CDCCCC3D4CFF3844CDCCB3
:10094600CC3D52D02444CDCCCC3D1FD51244CDCC89
:10095600CC3E2F9DAE43CDCCCC3D0000DC43CDCC70
:10096600CC3D06F1F643CDCC4C3E2F9DAE43CDCCCF
:10097600CC3D0000DC43CDCCCC3D06F1F643CDCCDE
:100986004C3E2F9DAE43CDCCCC3D0000DC43CDCCC0
:10099600CC3D06F1F643CDCCCC3D52D02444CDCC53
:1009A600CC3D1FD51244CDCC4C3E06F1F643CDCC02
:1009B600CC3D10D00244CDCCCC3D06F1F643CDCC97
:1009C600CC3D5CFFC343CDCCCC3D62D0A443CDCC63
:1009D600CC3E00247449CDCC4C3F1FD59243CDCCA0
:1009E600CC3D62D0A443CDCCCC3D5CFFC343CDCC43
:1009F600CC3D62D0A443CDCC4C3E62D0A443CDCCFA
:100A0600CC3E2F9DAE43CDCCCC3D0000DC43CDCCBF
:100A1600CC3D06F1F643CDCC4C3E2F9DAE43CDCC1E
:100A2600CC3D0000DC43CDCCCC3D06F1F643CDCC2D
:100A36004C3E2F9DAE43CDCCCC3D0000DC43CDCC0F
:100A4600CC3D06F1F643CDCCCC3D52D02444CDCCA2
:100A5600CC3D1FD51244CDCC4C3E06F1F643CDCC51
:100A6600CC3D10D00244CDCCCC3D52D02444CDCC8C
:100A7600CC3D06F1F643CDCCCC3D5CFFC343CDCC9B
:100A8600CC3E00247449CDCC4C3F06F1F643CDCC88
:100A9600CC3D5CFFC343CDCCCC3D1FD59243CDCCE2
:100AA600CC3D62D0A443CDCC4C3E62D0A443CDCC49
:100AB600CC3E1FD59243CDCCCC3D62D0A443CDCC09
:100AC600CC3D2F9DAE43CDCC4C3E5CFFC343CDCC3D
:100AD600CC3D0000DC43CDCCCC3D06F1F643CDCC7D
:100AE6004C3E10D00244CDCCCC3D06F1F643CDCCE5
:100AF600CC3D62D0A443CDCC4C3E62D0A443CDCCF9
:100B0600CC3E1FD59243CDCCCC3D62D0A443CDCCB8
:100B1600CC3D2F9DAE43CDCC4C3E5CFFC343CDCCEC
:100B2600CC3D0000DC43CDCCCC3D06F1F643CDCC2C
:100B36004C3E10D00244CDCCCC3D1FD51244CDCC7A
:100B4600CC3D52D02444CDCC4C3E52D02444CDCCC6
:100B5600CC3E1FD59243CDCCCC3D62D0A443CDCC68
:100B6600CC3D2F9DAE43CDCC4C3E5CFFC343CDCC9C
:100B7600CC3D0000DC43CDCCCC3D06F1F643CDCCDC
:100B86004C3E10D00244CDCCCC3D06F1F643CDCC44
:100B9600CC3D62D0A443CDCC4C3E62D0A443CDCC58
:100BA600CC3E1FD59243CDCCCC3D21D08243CDCC7B
:100BB600CC3D62D0A443CDCCCC3D1FD59243CDCC09
:100BC600CC3D5CFFC343CDCCCC3D2F9DAE43CDCCBD
:100BD600CC3D0000DC43CDCCCC3D5CFFC343CDCC4B
:100BE600CC3D06F1F643CDCCCC3D0000DC43CDCC6C
:100BF600CC3D10D00244CDCCCC3D06F1F643CDCC55
:100C0600CC3D1FD51244CDCCCC3D10D00244CDCC2A
:100C1600CC3D52D02444CDCC4C3D2F9DAE43CDCCC3
:100C26004C3D00247449CDCC4C3F1FD51244CDCC4D
:100C36004C3D52D02444CDCC4C3F00000000000077
:0A0C460000000000000000000000A4
:00000001FF
