:100000000C943A000C9457000C9457000C94570031
:100010000C9457000C9457000C9457000C94570004
:100020000C9457000C9457000C9457000C945700F4
:100030000C9457000C9457000C9457000C945700E4
:100040000C9457000C9457000C9457000C945700D4
:100050000C945700600299027F03A40482020F03EC
:100060008A03EA059603EB0316043A04C00301046D
:100070002704620411241FBECFE5D8E0DEBFCDBF48
:1000800010E0A0E6B0E0ECEBF2E102C005900D92CA
:10009000A03CB107D9F720E0A0ECB0E001C01D9270
:1000A000A03DB207E1F70E940D020C945C090C948C
:1000B00000009C0183E083BF83E808C082BF98B73B
:1000C000916098BFA89508B600FEFDCF2150310978
:1000D000A8F713BE0895662311F0C09A01C0C09816
:1000E000C19882BB8FEF81BBC29A00000000000064
:1000F000C2980895C098C19A11BA90B3C29A0000EC
:100100000000000011BA90B3C29899239CF30E949A
:100110006B000895B89AB99ABA9A80E190E00E946B
:10012000590060E080E30E946B0085E090E00E944F
:10013000590060E080E30E946B0081E090E00E9443
:10014000590060E08CE30E947A0060E08CE00E943D
:100150007A0060E086E00E947A0060E081E00E9420
:100160007A000895CF93C62F98E2899FC00D11247D
:1001700060E082E00E947A00CC2331F060E084E10C
:100180000E947A00C150D1F7CF910895CF93DF93A9
:10019000EC012196FC018081882331F061E00E940E
:1001A0007A0089918111FACFDF91CF9108952FE0E4
:1001B00024BB25BB55B321E030E0F90102C0EE0FAE
:1001C000FF1F6A95E2F74E2F4095452345BB45B387
:1001D0000496082E02C0220F331F0A94E2F7242B44
:1001E00025BB23B330E002C0359527958A95E2F709
:1001F00081E090E020FF02C080E090E008950F933E
:100200001F93CF93DF9300E010E018C0BE01C80138
:100210000E94D700009749F0CC0FDD1FCC0FDD1FE7
:10022000C00FD11FCE0101960CC02196C430D1055C
:1002300069F70F5F1F4F0430110519F0C0E0D0E0DF
:10024000E5CFDF91CF911F910F910895E0ECF0E0A1
:1002500084E398E09183808382E090E093838283BB
:100260008CE190E0958384838BE090E09783868394
:100270008BE390E09187808789E390E09387828782
:1002800081E090E095878487178616860895EF921F
:10029000FF920F931F93CF93DF93082F192FE62E12
:1002A000F72EC0ECD0E089818F9388818F938D8168
:1002B0008F938C818F938B818F938A818F9380E62C
:1002C00090E09F938F931F930F930E9472068DB7B8
:1002D0009EB70A960FB6F8949EBF0FBE8DBF8E854F
:1002E0009F85019701F58FE690E09F938F938B8513
:1002F0008F938A858F9389858F9388858F938F813C
:100300008F938E818F9382E790E09F938F93FF92DC
:10031000EF920E9472068DB79EB70C960FB6F894B6
:100320009EBF0FBE8DBF2091CC003091CD00C90182
:1003300081709078992324F401978E6F9F6F0196B6
:10034000019751F58091CE009091CF00892B09F053
:100350004DC084E890E09F938F93E0ECF0E08385BC
:100360008F9382858F9381858F9380858F938781EB
:100370008F9386818F9382E790E09F938F93FF9274
:10038000EF920E9472068DB79EB70C960FB6F89446
:100390009EBF0FBE8DBF2AC020FD28C08091CE0019
:1003A0009091CF00892B11F587E890E09F938F9370
:1003B000E0ECF0E083858F9382858F9381858F9326
:1003C00080858F9387818F9386818F9382E790E0DA
:1003D0009F938F93FF92EF920E9472068DB79EB704
:1003E0000C960FB6F8949EBF0FBE8DBF60E080E004
:1003F0000E94B200802F912F0E94C60060E081E031
:100400000E94B2008E2D9F2D0E94C600DF91CF91D9
:100410001F910F91FF90EF900895CF93DF93CDB789
:10042000DEB767970FB6F894DEBF0FBECDBF80E88A
:1004300084BF84BF0E948A000E942601BE01645FBF
:100440007F4FCE0101960E9447010F2EF0EC6F2ED8
:10045000F0E07F2EF02DCC24C394D12C0F2EFCE0A5
:100460002F2E312CF02D0F2EFBE34F2E512CF02D83
:100470000E94FF00049709F073C20F2EFFE18F2E38
:10048000912CF02D0F2EFCE1AF2EB12CF02D0E94FF
:10049000FF008C016CE081E00E94B2008AE890E0ED
:1004A0000E94C6006BE080E00E94B200F801319724
:1004B000E031F10508F048C2E65DFF4F0C945806A4
:1004C0008FE890E00E94C600D30112968D919C9116
:1004D000139701968D30910529F013969C938E9376
:1004E000129703C0F301C282D382D30114968D9177
:1004F0009C9115974D970CF427C21596BC92AE921D
:10050000149722C28FE890E00E94C600F301828116
:100510009381019719F09383828302C033822282F0
:10052000F301848195814D970CF40EC2B582A482AB
:100530000BC285E990E00E94C600D30114962D916C
:100540003C9115972F5F3F4F15963C932E93149730
:100550001296ED91FC911397E230F10579F50D912A
:100560001C917801B3E0EB22FF24E114F10409F0BF
:1005700062C3C80164E670E00E944406892B89F4D6
:10058000C80160E971E00E944406892B09F04EC35E
:1005900008C0D3011496CC9214971596DC92EF28DC
:1005A00029F5D30114968D919C9115974E97F4F0EF
:1005B0001496CC9214971596DC9218C0CF018D7FBB
:1005C0008430910509F4F0C2099709F4EDC20BC01B
:1005D000D3011496CC9214971596DC92E130F10574
:1005E00009F02EC3B1C1E130F10581F0E330F1052E
:1005F00069F0E530F10551F0CF010797029730F02F
:10060000EA30F10519F03C9709F09EC1F3018481AD
:10061000958180970CF498C1C482D58295C185E9F3
:1006200090E00E94C600D3011496ED91FC911597BD
:1006300031971596FC93EE93149712962D913C9159
:1006400013972230310541F50D911C917801B3E0EB
:10065000EB22FF24E114F10409F0F7C2C80164E6BB
:1006600070E00E944406892B09F4F8C207C0EF2B02
:1006700009F09FC2F301B582A4829BC2D3011496F4
:100680008D919C911597892BE1F4EDE1F0E01596A1
:10069000FC93EE93149715C0C9018D7F84309105AA
:1006A00011F0099759F4EF2B09F087C2EEE1F0E061
:1006B000D3011596FC93EE9314977FC22130310538
:1006C00089F02330310571F02530310559F0C90129
:1006D0000797029738F02A30310521F02C30310588
:1006E00009F032C1D30114968D919C911597892BF5
:1006F00009F02AC115969C928E92149725C18BE918
:1007000090E00E94C600F30180819181019691835F
:1007100080831AC18BE990E00E94C600D3018D91BD
:100720009C91119701978D939C930EC181EA90E063
:100730000E94C600F3018681978101969783868384
:10074000268537852115310531F40D9709F0FCC058
:10075000C682D782F9C02130310509F0F5C0883151
:10076000910509F02FC21782168204C0F301C486D6
:10077000D586EAC0D3011D961C921E921C97E4C038
:1007800081EA90E00E94C600F3018681978101977B
:100790009783868326853785232B31F4892B09F0AF
:1007A000D3C037822682D0C08F3FFFEF9F0709F06A
:1007B0000DC2E7E1F0E0D3011796FC93EE93169794
:1007C000D3011C96CC921C971D96DC92BDC0F30100
:1007D00015861486B9C087EA90E00E94C600D3014E
:1007E00018968D919C91199701968C33910529F05B
:1007F00019969C938E931897A7C0F30111861086C3
:10080000A3C087EA90E00E94C600D30118968D919C
:100810009C911997019720F0F3019187808794C0EC
:10082000D30119965C924E9218978EC08DEA90E093
:100830000E94C600F3018285938501968C33910551
:1008400019F09387828780C0138612867DC08DEA57
:1008500090E00E94C600F30182859385019730F0F5
:10086000D3011B969C938E931A976EC0F301538607
:1008700042866AC083EB90E00E94C600D3011C96BA
:100880008D919C911D97019681709078992324F405
:1008900001978E6F9F6F0196F301958784878685F8
:1008A0009785019709F050C0868197818D30910519
:1008B0001CF0C486D58648C00C970CF045C0158640
:1008C000148642C0F301868597850097F9F4C686A1
:1008D000D786848595858130910569F486819781D5
:1008E0008C30910589F10C9668E170E00E94440615
:1008F0009783868329C0892B39F586819781B10139
:100900000E944406F301978386831EC00197E1F499
:10091000D3011786168684859585009759F48681BC
:1009200097810C9789F4E8E1F0E01796FC93EE9339
:1009300016970AC0019741F4868197818C30910502
:1009400019F00C9797838683BE01645F7F4FCE01B9
:1009500001960E94470188EC90E00E94590097CDD3
:100960006BE080E00E94B20089EB90E00E94C6003C
:100970006CE081E00E94B2008AEB90E00E94C60029
:10098000F3018285938501968C33910519F0938745
:10099000828707C01386128680859185019691878C
:1009A0008087F30180859185CC9739F41186108674
:1009B00086819781019697838683D3011E968D91B8
:1009C0009C911F97892BE1F516968D919C91179715
:1009D0008C30910561F518968D919C911997892B12
:1009E00009F047C01A968D919C911B97892B09F0AD
:1009F00040C01C968D919C911D978130910551F4BA
:100A000014962D913C9115972F5F3F4F15963C936F
:100A10002E931497019681709078992324F401976E
:100A20008E6F9F6F0196F3019587848722C00D9783
:100A300001F5D3011696CC9216971796DC9219C041
:100A4000F301868197818831910541F484819581F4
:100A50000196958384831782168202C00C9734F422
:100A6000D3011D961C921E921C9703C0F301C486ED
:100A7000D586D30112968D919C911397029709F018
:100A8000B9C02D913C91F901E370FF27309749F4EB
:100A9000C90164E670E00E944406892B09F4E7C0AE
:100AA0001FC0C90160E971E00E944406892B09F466
:100AB0009DC0D30114968D919C9115974D9709F087
:100AC00095C01496CC9214971596DC92159783E0F6
:100AD00090E013969C938E9312972C2D3D2D0FC072
:100AE000F301848195814E9709F0CAC0C482D582F2
:100AF00083E090E09383828323E030E08EC029304E
:100B0000310509F482C011C0D3011496CC92149718
:100B10001596DC921597019613969C938E931297D7
:100B20009C018D7F019749F433C0F3012281338109
:100B3000C9018D7F019709F470C02530310509F492
:100B40006CC0C9010797029708F467C02A303105C5
:100B500009F463C02C30310509F45FC00DC0D30126
:100B60001496CC9214971596DC9215972F5F3F4FF1
:100B700013963C932E931297F301828193810D97E4
:100B800039F4C282D38280819181019691838083DE
:100B900088EE93E00E945900BE01645F7F4FCE0152
:100BA00001960E94470164CC2F3131050CF010CD25
:100BB000CBCEEF2809F085CD61CD2130310509F08C
:100BC00080CDC2CE0C970CF0D1CDD4CD0C970CF0CB
:100BD000F7CDFDCDBE01645F7F4FCE0101960E942F
:100BE000470188EC90E00E945900BACEEF2B09F043
:100BF00047C076CFD30112968D919C9113979C019B
:100C00002D7F2430310509F07ACFF301248135811D
:100C10002F31310509F478CFAFCFD30114968D91E0
:100C20009C911597809709F0B3CF99CF2D3131055D
:100C30000CF0AFCCB6CC2D3131050CF4D7CCA9CC0F
:100C4000E330F10509F0D5CC7FCEC80160E971E051
:100C50000E944406892B09F00ACD33CDC80160E912
:100C600071E00E944406892B09F408CD00CDC9012A
:100C700060E971E00E944406892B09F01ACF30CF59
:100C8000F301228133815DCF97FB072E16F4009488
:100C900007D077FD09D00E945E0607FC05D03EF420
:100CA000909581959F4F0895709561957F4F089518
:100CB000EE0FFF1F0590F491E02D0994AA1BBB1BBA
:100CC00051E107C0AA1FBB1FA617B70710F0A61B4C
:100CD000B70B881F991F5A95A9F780959095BC016D
:100CE000CD010895AEE0B0E0E8E7F6E00C943309FA
:100CF0000D891E8986E08C831A8309838FEF9FE715
:100D00009E838D83AE01475E5F4F6F89788DCE01E4
:100D100001960E949406EF81F885E00FF11F108282
:100D20002E96E4E00C944F09ABE0B0E0EAE9F6E07F
:100D30000C9425096C017B018A01FC011782168243
:100D4000838181FFCCC1CE0101963C01F6019381E4
:100D5000F70193FD859193FF81917F01882309F429
:100D6000BAC1853239F493FD859193FF81917F015A
:100D7000853229F4B60190E00E948B08E7CF912CD0
:100D8000212C312CFFE1F315D8F08B3279F038F4B7
:100D9000803279F08332A1F4232D20611DC08D3281
:100DA00061F0803369F4232D216016C0832D8260A9
:100DB000382EE32DE4603E2E2AC0F32DF8601DC0CE
:100DC00037FC2DC020ED280F2A3040F08E32B9F4C8
:100DD00036FC81C1232D2064322E19C036FE06C098
:100DE0008AE0989E200D1124922E11C0EAE02E9EDA
:100DF000200D1124222EF32DF0623F2E08C08C36D8
:100E000021F4832D8068382E02C0883641F4F70122
:100E100093FD859193FF81917F018111B3CF982F2D
:100E20009F7D9554933028F40C5F1F4F9FE3998367
:100E30000DC0833631F0833771F0833509F059C026
:100E400021C0F801808189830E5F1F4F882483941D
:100E5000912C530113C02801F2E04F0E511CF801F0
:100E6000A080B18036FE03C0692D70E002C06FEF34
:100E70007FEFC5010E9480084C018201F32DFF77AE
:100E80003F2E16C0280122E0420E511CF801A0801E
:100E9000B18036FE03C0692D70E002C06FEF7FEFB6
:100EA000C5010E9475084C01F32DF0683F2E8201A8
:100EB00033FC1BC0822D90E088169906B0F4B60171
:100EC00080E290E00E948B082A94F4CFF50137FC71
:100ED000859137FE81915F01B60190E00E948B08F9
:100EE00021102A9421E0821A91088114910471F74B
:100EF000E8C0843611F0893641F5F80137FE07C0A5
:100F000060817181828193810C5F1F4F08C0608175
:100F10007181072E000C880B990B0E5F1F4FF32D6C
:100F2000FF763F2E97FF09C090958095709561954B
:100F30007F4F8F4F9F4FF0683F2E2AE030E0A30194
:100F40000E94C708882E861845C0853731F4232DA6
:100F50002F7EB22E2AE030E025C0932D997FB92E46
:100F60008F36C1F018F4883579F0B5C0803719F0A4
:100F7000883721F0B0C0E92FE061BE2EB4FE0DC06D
:100F8000FB2DF460BF2E09C034FE0AC0292F266055
:100F9000B22E06C028E030E005C020E130E002C0FB
:100FA00020E132E0F801B7FE07C0608171818281E3
:100FB00093810C5F1F4F06C06081718180E090E0DB
:100FC0000E5F1F4FA3010E94C708882E8618FB2DB5
:100FD000FF773F2E36FE0DC0232D2E7FA22E8914C3
:100FE00058F434FE0BC032FC09C0832D8E7EA82E2F
:100FF00005C0B82CA32C03C0B82C01C0B92CA4FE8A
:101000000FC0FE01E80DF11D8081803321F49A2D7F
:10101000997EA92E09C0A2FE06C0B394B39404C061
:101020008A2D867809F0B394A3FC11C0A0FE06C0F7
:10103000B21488F4280C922C9B180EC0B21460F4E1
:10104000B60180E290E00E948B08B394F7CFB2140F
:1010500018F42B1802C0982C212CA4FE10C0B60145
:1010600080E390E00E948B08A2FE17C0A1FC03C0A1
:1010700088E790E002C088E590E0B6010CC08A2DB8
:10108000867859F0A1FE02C08BE201C080E2A7FC85
:101090008DE2B60190E00E948B08891438F4B60105
:1010A00080E390E00E948B089A94F7CF8A94F30132
:1010B000E80DF11D8081B60190E00E948B0881103F
:1010C000F5CF222009F442CEB60180E290E00E94E2
:1010D0008B082A94F6CFF6018681978102C08FEFA4
:1010E0009FEF2B96E2E10C944109FC0105906150C1
:1010F00070400110D8F7809590958E0F9F1F08952E
:10110000FC016150704001900110D8F780959095D6
:101110008E0F9F1F08950F931F93CF93DF93FB01B3
:10112000238121FD03C08FEF9FEF2CC022FF16C04B
:1011300046815781248135814217530744F4A081A9
:10114000B1819D012F5F3F4F318320838C93268196
:1011500037812F5F3F4F3783268314C08B01EC010B
:10116000FB010084F185E02D0995892BE1F6D8017A
:1011700016968D919C911797019617969C938E9336
:101180001697CE01DF91CF911F910F910895FA012B
:10119000AA27283051F1203181F1E8946F936E7FB6
:1011A0006E5F7F4F8F4F9F4FAF4FB1E03ED0B4E0A7
:1011B0003CD0670F781F891F9A1FA11D680F791FE8
:1011C0008A1F911DA11D6A0F711D811D911DA11DF9
:1011D00020D009F468943F912AE0269F1124301909
:1011E000305D3193DEF6CF010895462F4770405DA4
:1011F0004193B3E00FD0C9F7F6CF462F4F70405D53
:101200004A3318F0495D31FD4052419302D0A9F7AD
:10121000EACFB4E0A6959795879577956795BA95A7
:10122000C9F700976105710508959B01AC010A2E6D
:1012300006945795479537952795BA95C9F7620F44
:10124000731F841F951FA01D08952F923F924F92E8
:101250005F926F927F928F929F92AF92BF92CF9246
:10126000DF92EF92FF920F931F93CF93DF93CDB74F
:10127000DEB7CA1BDB0B0FB6F894DEBF0FBECDBFC7
:1012800009942A88398848885F846E847D848C8498
:101290009B84AA84B984C884DF80EE80FD800C81A1
:1012A0001B81AA81B981CE0FD11D0FB6F894DEBF84
:0C12B0000FBECDBFED010895F894FFCFF4
:1012BC00253032642F253032642F253034640048B9
:1012CC005200253032643A253032643A253032648B
:1012DC0020257300504D00414D0045646974004D4C
:1012EC006F6E74680044617920200059656172202A
:1012FC0000486F757220004D696E202000536563A5
:10130C00202000414D504D200020202020200000A6
:00000001FF
