:100000000C942A000C9434000C9434000C943400AA
:100010000C9434000C9434000C9434000C94340090
:100020000C9434000C9434000C9434000C94340080
:100030000C9434000C9434000C9434000C94340070
:100040000C9434000C9434000C9434000C94340060
:100050000C94340011241FBECFE5D8E0DEBFCDBF25
:100060000E9436000C9451000C94000081E087BB84
:10007000B19B02C018BAFBCF88BB2FE936E891E0EC
:10008000215030409040E1F700C0000018BA2FE93D
:1000900036E891E0215030409040E1F700C0000088
:0600A000E6CFF894FFCF4B
:00000001FF
